:020000040000fa
:080000000002040000000000f2
:020000040000fa
:04000800ac02000046
:020000040000fa
:04000c00ac02000042
:020000040000fa
:04001000ac0200003e
:020000040000fa
:04001400ac0200003a
:020000040000fa
:04001800ac02000036
:020000040000fa
:04001c00ac02000032
:020000040000fa
:04002000ac0200002e
:020000040000fa
:04002400ac0200002a
:020000040000fa
:04002800ac02000026
:020000040000fa
:04002c00ac02000022
:020000040000fa
:04003000ac0200001e
:020000040000fa
:04003400e4020000e2
:020000040000fa
:04003800ac02000016
:020000040000fa
:04003c00ac02000012
:020000040000fa
:04004000ac0200000e
:020000040000fa
:04004400ac0200000a
:020000040000fa
:04004800ac02000006
:020000040000fa
:04004c00ac02000002
:020000040000fa
:04005000ac020000fe
:020000040000fa
:04005400ac020000fa
:020000040000fa
:04005800ac020000f6
:020000040000fa
:04005c00ac020000f2
:020000040000fa
:04006000ac020000ee
:020000040000fa
:04006400ac020000ea
:020000040000fa
:04006800ac020000e6
:020000040000fa
:04006c00ac020000e2
:020000040000fa
:04007000ac020000de
:020000040000fa
:04007400ac020000da
:020000040000fa
:04007800ac020000d6
:020000040000fa
:04007c00ac020000d2
:020000040000fa
:04008000ac020000ce
:020000040000fa
:04008400ac020000ca
:020000040000fa
:04008800ac020000c6
:020000040000fa
:04008c00ac020000c2
:020000040000fa
:04009000ac020000be
:020000040000fa
:04009400ac020000ba
:020000040000fa
:04009800ac020000b6
:020000040000fa
:04009c00ac020000b2
:020000040000fa
:0400a000ac020000ae
:020000040000fa
:0400a400ac020000aa
:020000040000fa
:0400a800ac020000a6
:020000040000fa
:0400ac00ac020000a2
:020000040000fa
:0400b000ac0200009e
:020000040000fa
:0400b400ac0200009a
:020000040000fa
:0400b800ac02000096
:020000040000fa
:0400bc00ac02000092
:020000040000fa
:0400c000ac0200008e
:020000040000fa
:0400c400ac0200008a
:020000040000fa
:0400c800ac02000086
:020000040000fa
:0400cc00ac02000082
:020000040000fa
:0400d000ac0200007e
:020000040000fa
:0400d400ac0200007a
:020000040000fa
:0400d800ac02000076
:020000040000fa
:0400dc00ac02000072
:020000040000fa
:0400e000ac0200006e
:020000040000fa
:0400e400ac0200006a
:020000040000fa
:0400e800ac02000066
:020000040000fa
:0400ec00ac02000062
:020000040000fa
:0400f000ac0200005e
:020000040000fa
:0400f400ac0200005a
:020000040000fa
:0400f800ac02000056
:020000040000fa
:0400fc00ac02000052
:020000040000fa
:04010000ac0200004d
:020000040000fa
:04010400ac02000049
:020000040000fa
:04010800ac02000045
:020000040000fa
:04010c00ac02000041
:020000040000fa
:04011000ac0200003d
:020000040000fa
:04011400ac02000039
:020000040000fa
:04011800ac02000035
:020000040000fa
:04011c00ac02000031
:020000040000fa
:04012000ac0200002d
:020000040000fa
:04012400ac02000029
:020000040000fa
:04012800ac02000025
:020000040000fa
:04012c00ac02000021
:020000040000fa
:04013000ac0200001d
:020000040000fa
:04013400ac02000019
:020000040000fa
:04013800ac02000015
:020000040000fa
:04013c00ac02000011
:020000040000fa
:04014000ac0200000d
:020000040000fa
:04014400ac02000009
:020000040000fa
:04014800ac02000005
:020000040000fa
:04020800ac02000044
:020000040000fa
:04020c00ac02000040
:020000040000fa
:04021000ac0200003c
:020000040000fa
:04021400ac02000038
:020000040000fa
:04021800ac02000034
:020000040000fa
:04021c00ac02000030
:020000040000fa
:04022000ac0200002c
:020000040000fa
:04022400ac02000028
:020000040000fa
:04022800ac02000024
:020000040000fa
:04022c00ac02000020
:020000040000fa
:04023000ac0200001c
:020000040000fa
:04023400ac02000018
:020000040000fa
:04023800ac02000014
:020000040000fa
:04023c00ac02000010
:020000040000fa
:04024000ac0200000c
:020000040000fa
:04024400ac02000008
:020000040000fa
:04024800ac02000004
:020000040000fa
:04024c00ac02000000
:020000040000fa
:04025000ac020000fc
:020000040000fa
:04025400ac020000f8
:020000040000fa
:04025800ac020000f4
:020000040000fa
:04025c00ac020000f0
:020000040000fa
:04026000ac020000ec
:020000040000fa
:04026400ac020000e8
:020000040000fa
:04026800ac020000e4
:020000040000fa
:04026c00ac020000e0
:020000040000fa
:04027000ac020000dc
:020000040000fa
:04027400ac020000d8
:020000040000fa
:04027800ac020000d4
:020000040000fa
:04027c00ac020000d0
:020000040000fa
:04028000ac020000cc
:020000040000fa
:04028400ac020000c8
:020000040000fa
:04028800ac020000c4
:020000040000fa
:04028c00ac020000c0
:020000040000fa
:04029000ac020000bc
:020000040000fa
:04029400ac020000b8
:020000040000fa
:04029800ac020000b4
:020000040000fa
:04029c00ac020000b0
:020000040000fa
:0402a000ac020000ac
:020000040000fa
:0402a400ac020000a8
:020000040000fa
:0402a800ac020000a4
:020000040000fa
:0402ac00ac020000a0
:020000040000fa
:0402b000ac0200009c
:020000040000fa
:0402b400ac02000098
:020000040000fa
:0402b800ac02000094
:020000040000fa
:0402bc00ac02000090
:020000040000fa
:0402c000ac0200008c
:020000040000fa
:0402c400ac02000088
:020000040000fa
:0402c800ac02000084
:020000040000fa
:0402cc00ac02000080
:020000040000fa
:0402d000ac0200007c
:020000040000fa
:0402d400ac02000078
:020000040000fa
:0402d800ac02000074
:020000040000fa
:0402dc00ac02000070
:020000040000fa
:0402e000ac0200006c
:020000040000fa
:0402e400ac02000068
:020000040000fa
:0402e800ac02000064
:020000040000fa
:0402ec00ac02000060
:020000040000fa
:0402f000ac0200005c
:020000040000fa
:0402f400ac02000058
:020000040000fa
:0402f800ac02000054
:020000040000fa
:0402fc00ac02000050
:020000040000fa
:04030000ac0200004b
:020000040000fa
:04030400ac02000047
:020000040000fa
:04030800ac02000043
:020000040000fa
:04030c00ac0200003f
:020000040000fa
:04031000ac0200003b
:020000040000fa
:04031400ac02000037
:020000040000fa
:04031800ac02000033
:020000040000fa
:04031c00ac0200002f
:020000040000fa
:04032000ac0200002b
:020000040000fa
:04032400ac02000027
:020000040000fa
:04032800ac02000023
:020000040000fa
:04032c00ac0200001f
:020000040000fa
:04033000ac0200001b
:020000040000fa
:04033400ac02000017
:020000040000fa
:04033800ac02000013
:020000040000fa
:04033c00ac0200000f
:020000040000fa
:04034000ac0200000b
:020000040000fa
:04034400ac02000007
:020000040000fa
:04034800ac02000003
:020000040000fa
:100400004f8120000e7f22000e01880000000000b6
:10041000000020000000e000020032000001200087
:10042000200288000c00070060522000010020001c
:1004300011000700000020000000e0000200320070
:10044000000002000000000046030200000000005f
:100450000040da000000fe004440a9000000200037
:100460000000e0000300320000002000a00188002e
:100470004440a80000000600910188008000780038
:100480000000eb0015003700e280400032a0b4000d
:100490009101ba00e280400032a0b4009102ba009b
:1004a000e280400032a0b4000002eb00472bde00e7
:1004b000f507b200602ce10004003a000059eb009f
:1004c0008301e900fdff3e00040037006128e100e0
:1004d000010032000082eb000b00070011c3ba00dc
:1004e0001101ba000604e00003003a000200e00037
:1004f000e5ff3a0000000600f607b200960188000a
:1005000082007800f5ff37003159ba008301e90015
:100510000c0032002159ba008301e90008003200c2
:100520000400e00003003a00e280400032a0b40082
:10053000f5ff370011d9ba008301e900faff3a004c
:100540008100e800e180400032a0b4000000060015
:1005500000000000000000000040da000000fe0083
:020000040000fa
:100560000000fa00217420006204200073052000be
:10057000824878008348780042c7a900113680007d
:10058000f00f2e008080600000302000010070001d
:10059000103688002135800000fe2f0000806000aa
:1005a0000010a00020358800217420006204200083
:1005b00073052000824878008348780042c7a8006d
:1005c0000080fa000000060000a0fe003400f800e1
:1005d000881f780008002000a80188004f047800d8
:1005e0000000fa000040800011408000e00f500041
:1005f000e08f58000600320000408000114080006b
:1006000061005000e08058000040880011408800e0
:100610008460a9000080fa003400f9000080fe0028
:10062000004006000200fa00000f78001e0078006b
:10063000cf80de00004088001140880000000000ec
:100640000040800011408000e00f5000e08f580013
:10065000fbff3a000080fa00000006000200fa00ea
:10066000004f7800000000001111800000202000e1
:10067000008060000000e000fbff3a001e80fb00ed
:10068000201188000080fa00000006000a00fa002d
:100690000000eb0010079800b1ff07000080eb009e
:1006a00060198800c022ef0040002000401688003a
:1006b0008460a9009460a8002005800000c0a1000b
:1006c00000d0a00000e0a10020058800703e2000be
:1006d0001008880000012800200888000001200080
:1006e00040118800000022001011880080002800be
:1006f000001188002342a800980007002003200072
:10070000c8ff0700700007008040eb0020c5b30061
:100710004b00070000cfb3007d00070050c5b300b9
:100720007b0007005f000700a0002000bdff07005e
:100730006500070011c0b30020c5b30040000700ea
:100740006400470061002000950007005500070085
:1007500010002000b3ff07005b0007008040eb00a3
:1007600020c5b300360007000040eb00680007001a
:100770004c00070010002000aaff070052000700ed
:1007800011c0b30020c5b3002d000700640047006e
:10079000610020008200070042000700a0c5b300ee
:1007a000aeff07000040eb00004f78000500370067
:1007b0001e80fb000000470040409000a7ff07009c
:1007c0001e4fe8001e407800e54f5000f8ff36004d
:1007d0007e4090000080fb00c200dd001e489000bb
:1007e0000081fb0000032000000061004480de0067
:1007f00000804000100798009e00900060272000b5
:10080000808f500002003400cbe2a900d0ff3700f7
:10081000cbe2a800ceff37000000fa0006a2a90034
:100820000682a80000000000301080007000600008
:100830000000e000fcff3a000080fa000000060023
:100840000200fa00004f7800114798001e80fb005c
:1008500000004000800078001e4090000000fb0077
:10086000010070001010880000000000411080009e
:1008700000002400008060000000e000fbff3a0060
:1008800040108000610060000000e000f7ff3a00c7
:10089000401080004f00de00004078000080fa0029
:1008a000000006000000fa000642a8000000000058
:1008b00030108000640060000000e000fcff3a009f
:1008c0000080fa00000006000000fa000602a800fe
:1008d0000000000030108000610060000000e000b7
:1008e000fcff3a000080fa00000006000000fa0059
:1008f0000622a800000000003010800062006000a6
:100900000000e000fcff3a000080fa000000060052
:100910000200fa00004f78001e80fb0010108800d3
:1009200000000000411080000000240000806000f2
:100930000000e000fbff3a00401080006100600012
:100940000000e000f7ff3a00401080004f00de009a
:10095000004078000080fa00000006000000fa0065
:10096000f00420002010880007e2a8000080fa00b0
:10097000000006000000fa000662a8000000000067
:1009800030108000680060000000e000fcff3a00ca
:1009900000108000004078000080fa00000006008f
:1009a0000600fa00881f78001007980021079800b9
:1009b0002e0090000000e000160034000000eb0064
:1009c000000f7800070037001e0078009e0090009e
:1009d00000844000e7ff0700004c78008eff07000e
:1009e0001e0fe8002e0090000000e9009e0f50004e
:1009f000f5ff3c001e0078009e009000008440003f
:100a0000dcff0700004c78002051200000000100ae
:100a100001003700000000004f0478000080fa0059
:100a2000000006000000fa0006a2a8000682a80046
:100a30000000000030108000700060000000e00046
:0c0a4000fcff3a000080fa0000000600f5
:020000040000fa
:100a4c000008000004000000000000000408000082
:100a5c001000000002000000303132003334350049
:100a6c003637380039414200434445004600000007
:040a7c0040058000b1
:020000040000fa
:040a80000000000072
:020000040000fa
:020000040001f9
:0457f80087790000ad
:020000040000fa
:020000040001f9
:0457fc00603f00000a
:00000001FF
