:020000040000fa
:080000000002040000000000f2
:020000040000fa
:04000800ac02000046
:020000040000fa
:04000c00ac02000042
:020000040000fa
:04001000ac0200003e
:020000040000fa
:04001400ac0200003a
:020000040000fa
:04001800ac02000036
:020000040000fa
:04001c00ac02000032
:020000040000fa
:04002000ac0200002e
:020000040000fa
:04002400ac0200002a
:020000040000fa
:04002800ac02000026
:020000040000fa
:04002c00ac02000022
:020000040000fa
:04003000ac0200001e
:020000040000fa
:04003400ae05000015
:020000040000fa
:04003800ac02000016
:020000040000fa
:04003c00ac02000012
:020000040000fa
:04004000ac0200000e
:020000040000fa
:04004400e8050000cb
:020000040000fa
:04004800ac02000006
:020000040000fa
:04004c00ac02000002
:020000040000fa
:04005000ac020000fe
:020000040000fa
:04005400b2080000ee
:020000040000fa
:04005800ac020000f6
:020000040000fa
:04005c00ac020000f2
:020000040000fa
:04006000ac020000ee
:020000040000fa
:04006400ac020000ea
:020000040000fa
:04006800ac020000e6
:020000040000fa
:04006c00ac020000e2
:020000040000fa
:04007000ac020000de
:020000040000fa
:04007400ac020000da
:020000040000fa
:04007800ac020000d6
:020000040000fa
:04007c00ac020000d2
:020000040000fa
:04008000ac020000ce
:020000040000fa
:04008400ac020000ca
:020000040000fa
:04008800ac020000c6
:020000040000fa
:04008c00ac020000c2
:020000040000fa
:04009000ac020000be
:020000040000fa
:04009400ac020000ba
:020000040000fa
:04009800ac020000b6
:020000040000fa
:04009c00ac020000b2
:020000040000fa
:0400a000ac020000ae
:020000040000fa
:0400a400ac020000aa
:020000040000fa
:0400a800ac020000a6
:020000040000fa
:0400ac00ac020000a2
:020000040000fa
:0400b000ac0200009e
:020000040000fa
:0400b400ac0200009a
:020000040000fa
:0400b800ac02000096
:020000040000fa
:0400bc00ac02000092
:020000040000fa
:0400c000ac0200008e
:020000040000fa
:0400c400ac0200008a
:020000040000fa
:0400c800ac02000086
:020000040000fa
:0400cc00ac02000082
:020000040000fa
:0400d000ac0200007e
:020000040000fa
:0400d400ac0200007a
:020000040000fa
:0400d800ac02000076
:020000040000fa
:0400dc00ac02000072
:020000040000fa
:0400e000ac0200006e
:020000040000fa
:0400e400ac0200006a
:020000040000fa
:0400e800ac02000066
:020000040000fa
:0400ec00ac02000062
:020000040000fa
:0400f000ac0200005e
:020000040000fa
:0400f400ac0200005a
:020000040000fa
:0400f800ac02000056
:020000040000fa
:0400fc00ac02000052
:020000040000fa
:04010000ac0200004d
:020000040000fa
:04010400ac02000049
:020000040000fa
:04010800ac02000045
:020000040000fa
:04010c00ac02000041
:020000040000fa
:04011000ac0200003d
:020000040000fa
:04011400ac02000039
:020000040000fa
:04011800ac02000035
:020000040000fa
:04011c00ac02000031
:020000040000fa
:04012000ac0200002d
:020000040000fa
:04012400ac02000029
:020000040000fa
:04012800ac02000025
:020000040000fa
:04012c00ac02000021
:020000040000fa
:04013000ac0200001d
:020000040000fa
:04013400ac02000019
:020000040000fa
:04013800ac02000015
:020000040000fa
:04013c00ac02000011
:020000040000fa
:04014000ac0200000d
:020000040000fa
:04014400ac02000009
:020000040000fa
:04014800ac02000005
:020000040000fa
:04020800ac02000044
:020000040000fa
:04020c00ac02000040
:020000040000fa
:04021000ac0200003c
:020000040000fa
:04021400ac02000038
:020000040000fa
:04021800ac02000034
:020000040000fa
:04021c00ac02000030
:020000040000fa
:04022000ac0200002c
:020000040000fa
:04022400ac02000028
:020000040000fa
:04022800ac02000024
:020000040000fa
:04022c00ac02000020
:020000040000fa
:04023000ac0200001c
:020000040000fa
:04023400ac02000018
:020000040000fa
:04023800ac02000014
:020000040000fa
:04023c00ac02000010
:020000040000fa
:04024000ac0200000c
:020000040000fa
:04024400ac02000008
:020000040000fa
:04024800ac02000004
:020000040000fa
:04024c00ac02000000
:020000040000fa
:04025000ac020000fc
:020000040000fa
:04025400ac020000f8
:020000040000fa
:04025800ac020000f4
:020000040000fa
:04025c00ac020000f0
:020000040000fa
:04026000ac020000ec
:020000040000fa
:04026400ac020000e8
:020000040000fa
:04026800ac020000e4
:020000040000fa
:04026c00ac020000e0
:020000040000fa
:04027000ac020000dc
:020000040000fa
:04027400ac020000d8
:020000040000fa
:04027800ac020000d4
:020000040000fa
:04027c00ac020000d0
:020000040000fa
:04028000ac020000cc
:020000040000fa
:04028400ac020000c8
:020000040000fa
:04028800ac020000c4
:020000040000fa
:04028c00ac020000c0
:020000040000fa
:04029000ac020000bc
:020000040000fa
:04029400ac020000b8
:020000040000fa
:04029800ac020000b4
:020000040000fa
:04029c00ac020000b0
:020000040000fa
:0402a000ac020000ac
:020000040000fa
:0402a400ac020000a8
:020000040000fa
:0402a800ac020000a4
:020000040000fa
:0402ac00ac020000a0
:020000040000fa
:0402b000ac0200009c
:020000040000fa
:0402b400ac02000098
:020000040000fa
:0402b800ac02000094
:020000040000fa
:0402bc00ac02000090
:020000040000fa
:0402c000ac0200008c
:020000040000fa
:0402c400ac02000088
:020000040000fa
:0402c800ac02000084
:020000040000fa
:0402cc00ac02000080
:020000040000fa
:0402d000ac0200007c
:020000040000fa
:0402d400ac02000078
:020000040000fa
:0402d800ac02000074
:020000040000fa
:0402dc00ac02000070
:020000040000fa
:0402e000ac0200006c
:020000040000fa
:0402e400ac02000068
:020000040000fa
:0402e800ac02000064
:020000040000fa
:0402ec00ac02000060
:020000040000fa
:0402f000ac0200005c
:020000040000fa
:0402f400ac02000058
:020000040000fa
:0402f800ac02000054
:020000040000fa
:0402fc00ac02000050
:020000040000fa
:04030000ac0200004b
:020000040000fa
:04030400ac02000047
:020000040000fa
:04030800ac02000043
:020000040000fa
:04030c00ac0200003f
:020000040000fa
:04031000ac0200003b
:020000040000fa
:04031400ac02000037
:020000040000fa
:04031800ac02000033
:020000040000fa
:04031c00ac0200002f
:020000040000fa
:04032000ac0200002b
:020000040000fa
:04032400ac02000027
:020000040000fa
:04032800ac02000023
:020000040000fa
:04032c00ac0200001f
:020000040000fa
:04033000ac0200001b
:020000040000fa
:04033400ac02000017
:020000040000fa
:04033800ac02000013
:020000040000fa
:04033c00ac0200000f
:020000040000fa
:04034000ac0200000b
:020000040000fa
:04034400ac02000007
:020000040000fa
:04034800ac02000003
:020000040000fa
:100400000f8420000e7f22000e01880000000000f3
:10041000000020000000e000020032000001200087
:10042000200288000c000700c09d20000100200071
:1004300011000700000020000000e0000200320070
:10044000000002000000000044080200000000005c
:100450000040da000000fe004440a9000000200037
:100460000000e0000300320000002000a00188002e
:100470004440a80000000600910188008000780038
:100480000000eb0015003700e280400032a0b4000d
:100490009101ba00e280400032a0b4009102ba009b
:1004a000e280400032a0b4000002eb00472bde00e7
:1004b000f507b200602ce10004003a000059eb009f
:1004c0008301e900fdff3e00040037006128e100e0
:1004d000010032000082eb000b00070011c3ba00dc
:1004e0001101ba000604e00003003a000200e00037
:1004f000e5ff3a0000000600f607b200960188000a
:1005000082007800f5ff37003159ba008301e90015
:100510000c0032002159ba008301e90008003200c2
:100520000400e00003003a00e280400032a0b40082
:10053000f5ff370011d9ba008301e900faff3a004c
:100540008100e800e180400032a0b4000000060015
:1005500000000000000000000040da000000fe0083
:10056000889fbe008a9fbe008c1f78009d000700f8
:10057000a400330003866c006450e1002e003200ba
:100580006420e100330032006150e1002f003200ae
:100590006120e1003100320085855500eb07b00095
:1005a000090020000804200005003700080444006a
:1005b00089844c000a0031000603430087834b0006
:1005c0000001530081815b00f8ff33000203be008d
:1005d0000800a0000804440089844c00f6ff39009c
:1005e000c639dd00830173000100320013002000d2
:1005f0008904d1000884d3000998a30005003200c3
:100600000800a7000300a0008904d1000884d300db
:100610008b05e8008904d1000884d3000001eb00b9
:100620000281d2003400070001f0a1000cf0a70005
:1006300001f0a0007c0037006420e1007e00320061
:100640000801be000200be00f7ff37006120e10094
:10065000790032006000b800f3ff3700000020008e
:1006600001f82700f0ff37000001be004800070036
:100670000470a70003f0a1006509b1001600320064
:100680000d0035006828e10006003500f0ff2f005e
:10069000f1ff27000300e00013003b0001002800e9
:1006a0000000050000004000818048008502e9004c
:1006b000fcff3a0008003700f88f420002003c00bf
:1006c0008000eb00000005008100d1000080d30015
:1006d0008502e800fcff3a000300e00002003b0056
:1006e00060001000e0801800000006004f89de0066
:1006f000820178008700370081002000618055006a
:100700000b003d000b00200061fe2f000100e10006
:100710001d00340082817100610164008904d100f0
:100720000884d3000000e800faff3a0071002000be
:1007300061006400030070000200600009003200e4
:1007400061044400e0844c000988a50005003200e3
:100750008b05e8006808e10002003a008904d10036
:100760000884d300f20f20000258e10005003d008c
:10077000c75ddd00f907b2008980750008007800c8
:10078000000006000bf827008b0078000000050031
:10079000c70ade00f107b200f50fb2000800320010
:1007a000e1cf4200020032000170a00024000500e9
:1007b000810f7000010032000408050044000500ac
:1007c000810f700002003a00140005008502e90064
:1007d0000000400081c04800fcff3b000170a00009
:1007e000240005000004be00e9ff07000003be006e
:1007f0000405be000200be00e5ff0700844f75003f
:10080000000006000200be006450e1000500360052
:100810006420e100020036000968a30001003a00ec
:100820000800be000160a0004f0678004f05be0022
:100830004f04be0000000600f0ff2f00f1ff27006c
:10084000f9ff3700889fbe008a9fbe008c1f78008a
:10085000e4ff0700ebff330003866c006450e10007
:10086000240032006420e100270032006150e100e2
:10087000220032006120e100210032008b8542001d
:10088000eb07b1000134b800003ab8000804420098
:1008900089844a00013ab8000030b80088804000de
:1008a00009014a0004003300000040008180480034
:1008b000020149008b05e900c909dd0083017000d0
:1008c0000100320013002000c814de004814dd00cf
:1008d0004709de001200b200c808de00088470007c
:1008e00085ff070001f0a1000cf0a70001f0a000b7
:1008f000cdff37006120e100cfff32000801be00cc
:100900000200be00f7ff37006150e100fcff3a0033
:10091000c9ff3700881f7800030478000300e00057
:1009200007003d0060001000e08018006001190021
:10093000e081190002003b0001f02d0003003700a8
:100940000400070008f0a70001f0a0004f047800a1
:1009500000000600889fbe008a9fbe0000827000d3
:100960000402710004827100260032000004be00ff
:100970000200be006011b8006b0920009502200043
:100980000182cf000a0039000541b1000082cf008a
:10099000070039000541b1000982cf000400390089
:1009a0000541b1000882cf00010039000541b100c6
:1009b00005425200120032000a003b0082817100a1
:1009c000610164008100d1000080d3008984d300dc
:1009d0000884d3008b05e8000442e800f7ff3a00e2
:1009e000070037000804440089844c0000004800d8
:1009f000818048008b05e9000442e900f9ff3a00d4
:100a00003dff07004f05be004f04be00000006007a
:020000040000fa
:100a10000000fa0021742000620420007305200009
:100a2000824878008348780042c7a90011368000c8
:100a3000f00f2e0080806000003020000100700068
:100a4000103688002135800000fe2f0000806000f5
:100a50000010a000203588007136800000fe2f00b5
:100a6000008060002001b3007036880021742000ef
:100a700062042000730520008248780083487800d3
:100a800042c7a8000080fa00000006000000fa003b
:100a90008460a9009460a8002005800000c0a10027
:100aa00000d0a00000e0a10020058800703e2000da
:100ab0001008880000012800200888000080fa0043
:100ac000000006000000fa001021ef000621ef00f0
:100ad000f0e1240060088800800880000040a00049
:100ae0000050a100800888003005800000c0a000f0
:100af00000d0a10000e0a1003005880084e0a9003a
:100b000094e0a80011e1a8000080fa0000000600af
:100b10000000fa00ddff0700eaff07000080fa008e
:100b2000000006000000fa0050002000200c8800a1
:100b30008221ef00c05d2000000c88000080fa00d8
:100b4000000006000200fa00000f78001e00780086
:100b5000000c88000080fa000000060000a0fe00e3
:100b60003400f800881f780008002000a8018800e1
:100b70004f0478000000fa0070408000814080003f
:100b8000e00f5000e08f58000600320070408000f7
:100b90008140800061005000e08058007040880073
:100ba000814088004040800051408000610040004a
:100bb000e080480040408800514088008460a900df
:100bc0000080fa003400f9000080fe0000400600ba
:100bd000801f78000000fa00f04180000000e00073
:100be00004003200304080000000e80030408800ff
:100bf000010037000628ef0000408000e10f5000a0
:100c000003003a00204080000000e80020408800f7
:100c100084e0a9000080fa004f0078000040060040
:100c20000200fa00000f78001e007800cf80de007e
:100c30007040880081408800000000007040800003
:100c400081408000e00f5000e08f5800fbff3a0029
:100c50000080fa00000006000200fa00004f780051
:100c600000000000111180000020200000806000c2
:100c70000000e000fbff3a001e80fb00201188000e
:100c80000080fa00000006000e00fa000001780063
:100c9000610798006e00900010407800704798003f
:100ca0006e0090000000e800104078006047980057
:100cb0006e0090000080e800104078000080fb008b
:100cc000c200dd006e00900065004000104078001a
:100cd0000080fb006c0060004280de00008040006d
:100ce000200798006e0090006300400010407800dc
:100cf0000080fb00c200dd006e0090006500400037
:100d0000104078008081fb0000032000008061001b
:100d10004480de0000804000100798006e009000c4
:100d200064004000104078000080fb00c200dd003d
:100d30006e00900065004000104078000080fb00cd
:100d40004600de00004078000080fb00008040008c
:100d5000000f78006e0090006500400010407800a1
:100d60000080fb006100600000f0a7000000ea00c6
:100d70000000e9004f00de00400798006e00900080
:100d800065004000104078000080fb0062006000b9
:100d90000080d10000f0a7000000ea000000e90098
:100da0004f00de00500798000e00780082007800a7
:100db000b0187800a0107800e48040006400400083
:100dc000b0187800a0107800e48040006400400073
:100dd000b0187800a0107800e48040006400400063
:100de000020078000080fa00000006000000fa000f
:100df000a14080009040800000805000cf80de0045
:100e00003afe07000001be0000e02300c169240093
:100e1000d3fd0700d0408800e1408800c140800039
:100e2000b040800000805000cf80de002ffe070021
:100e30000001be0000e02300c1692400c8fd0700d6
:100e4000f0408800014188000080fa0000000600a0
:100e50000000fa00f141800060272000808f5000e0
:100e600002003400cbe2a80001003700cbe2a90069
:100e70003140800060092000808f50000300340062
:100e80000628ef001000200000408800b0832000fa
:100e9000104078000080fb00cf80de0013fe0700ca
:100ea0000002be00d0408000e14080000001be0092
:100eb0000400be0063fe0700ebfd070000007800a1
:100ec00020ff07000080fa00000006000200fa0080
:100ed0003140800060092000808f50000200340003
:100ee0000628ef000028ef0020408000f90f500096
:100ef0000d0034000428ef00501680004f00de0083
:100f00000040780000c0ea00614060000080fb0003
:100f10004f00dd0052168000f1ff270081006100c4
:100f200001007000501688000000eb00000f7800f0
:100f3000b0832000104078008080fb00904080004b
:100f4000808f500006003d00b083200010407800e4
:100f50000080fb009040880010002000000f780007
:100f6000b0832000104078008080fb00a04080000b
:100f7000808f500006003400b083200010407800bd
:100f80000080fb00a040880010002000000f7800c7
:100f9000a0832000104078008080fb00b0408000db
:100fa000808f500006003d00a08320001040780094
:100fb0000080fb00b040880010002000000f780087
:100fc000a0832000104078008080fb00c04080009b
:100fd000808f500006003400a0832000104078006d
:100fe0000080fb00c040880010002000000f780047
:100ff0001e0078000000e000010032007bff0700c7
:101000000080fa00000006000000fa0000408000a6
:101010000000e00003003200e10f50000300320046
:10102000040037008aff070004003700a7ff07000d
:101030000200370086ff0700000000000080fa0071
:10104000000006000000fa00300320004011880074
:101050000000220010118800000028000011880004
:101060002342a8004005800000c0a10000d0a000dd
:1010700000e0a100400588008560a9009560a800f7
:101080000080fa00000006000600fa0060fe07007b
:101090000080eb0060198800c022ef0040002000b3
:1010a00040168800e7ff070099fe07009dfe070035
:1010b000cbc2a900cbe2a90001003700000000006c
:1010c000104180006101b900404080005140800023
:1010d000800f5100818f590010003d000828ef005b
:1010e0000a28ef00501680004f00de000040780014
:1010f00000c0ea00614060000080fb004f00dd009e
:1011000052168000f1ff270081006100010070008d
:101110005016880070c7b300cffe07006040800003
:101120000000e000e5ff32000c28ef0050168000c0
:101130004e00de006140600000c0ea0061406000d7
:101140000080fb00610060004e00dd005216800050
:10115000f1ff2b0081006100010070005016880033
:10116000d7ff3700801f78000000fa001000200031
:10117000604088008560a9000080fa004f00780078
:10118000004006000000fa0006a2a9000682a8009e
:101190000000000030108000700060000000e000df
:1011a000fcff3a000080fa00000006000200fa008e
:1011b000004f7800114798001e80fb00000040009f
:1011c000800078001e4090000000fb0001007000cd
:1011d0001010880000000000411080000000240072
:1011e000008060000000e000fbff3a00401080003b
:1011f000610060000000e000f7ff3a00401080004e
:101200004f00de00004078000080fa000000060079
:101210000000fa000642a800000000003010800024
:10122000640060000000e000fcff3a000080fa006b
:10123000000006000000fa000602a80000000000fe
:1012400030108000610060000000e000fcff3a0008
:101250000080fa00000006000000fa000622a80044
:101260000000000030108000620060000000e0001c
:10127000fcff3a000080fa00000006000200fa00bd
:10128000004f78001e80fb00101088000000000056
:101290004110800000002400008060000000e00099
:1012a000fbff3a0040108000610060000000e00099
:1012b000f7ff3a00401080004f00de000040780049
:1012c0000080fa00000006000000fa00f004200090
:1012d0002010880007e2a8000080fa000000060045
:1012e0000000fa000662a800000000003010800034
:1012f000680060000000e000fcff3a000010800081
:10130000004078000080fa00000006000600fa00a5
:10131000881f780010079800210798002e00900081
:101320000000e000160034000000eb00000f780021
:10133000070037001e0078009e00900000844000e7
:10134000e7ff0700004c78008eff07001e0fe80043
:101350002e0090000000e9009e0f5000f5ff3c00b9
:101360001e0078009e00900000844000dcff070013
:10137000004c7800809c2000000001000100370034
:10138000000000004f0478000080fa000000060012
:101390000000fa0006a2a8000682a80000000000d3
:1013a00030108000700060000000e000fcff3a0098
:0813b0000080fa0000000600b5
:020000040000fa
:1013b8002408000010000000020000003031320054
:1013c800333435003637380039414200434445004c
:1013d80046000000340800000c0000000000000077
:1013e80000080000120000000000000012080000c1
:1013f8001200000002000000800080000080000051
:101408008000000000803f00000080003fb80b0013
:041418000e0a800038
:020000040000fa
:04141c0000000000cc
:020000040000fa
:020000040001f9
:0457f80087790000ad
:020000040000fa
:020000040001f9
:0457fc00603f00000a
:00000001FF
